{
  "contractName": "Bounty",
  "abi": [
    {
      "constant": true,
      "inputs": [
        {
          "name": "",
          "type": "uint256"
        }
      ],
      "name": "jobList",
      "outputs": [
        {
          "name": "",
          "type": "uint256"
        }
      ],
      "payable": false,
      "stateMutability": "view",
      "type": "function"
    },
    {
      "constant": true,
      "inputs": [
        {
          "name": "",
          "type": "address"
        }
      ],
      "name": "balances",
      "outputs": [
        {
          "name": "",
          "type": "uint256"
        }
      ],
      "payable": false,
      "stateMutability": "view",
      "type": "function"
    },
    {
      "constant": true,
      "inputs": [
        {
          "name": "",
          "type": "uint256"
        }
      ],
      "name": "userAccounts",
      "outputs": [
        {
          "name": "",
          "type": "address"
        }
      ],
      "payable": false,
      "stateMutability": "view",
      "type": "function"
    },
    {
      "payable": false,
      "stateMutability": "nonpayable",
      "type": "fallback"
    },
    {
      "anonymous": false,
      "inputs": [
        {
          "indexed": false,
          "name": "accountAddress",
          "type": "address"
        },
        {
          "indexed": false,
          "name": "_age",
          "type": "uint256"
        },
        {
          "indexed": false,
          "name": "_fname",
          "type": "string"
        },
        {
          "indexed": false,
          "name": "_lname",
          "type": "string"
        },
        {
          "indexed": false,
          "name": "_email",
          "type": "string"
        }
      ],
      "name": "logAddUser",
      "type": "event"
    },
    {
      "anonymous": false,
      "inputs": [
        {
          "indexed": false,
          "name": "job_title",
          "type": "string"
        },
        {
          "indexed": false,
          "name": "job_description",
          "type": "string"
        },
        {
          "indexed": false,
          "name": "job_price",
          "type": "uint256"
        }
      ],
      "name": "logAddJob",
      "type": "event"
    },
    {
      "anonymous": false,
      "inputs": [],
      "name": "logJobsCount",
      "type": "event"
    },
    {
      "anonymous": false,
      "inputs": [
        {
          "indexed": false,
          "name": "sender",
          "type": "address"
        },
        {
          "indexed": false,
          "name": "amount",
          "type": "uint256"
        }
      ],
      "name": "LogDeposit",
      "type": "event"
    },
    {
      "anonymous": false,
      "inputs": [
        {
          "indexed": false,
          "name": "receiver",
          "type": "address"
        },
        {
          "indexed": false,
          "name": "amount",
          "type": "uint256"
        }
      ],
      "name": "LogWithdrawal",
      "type": "event"
    },
    {
      "anonymous": false,
      "inputs": [
        {
          "indexed": false,
          "name": "sender",
          "type": "address"
        },
        {
          "indexed": false,
          "name": "to",
          "type": "address"
        },
        {
          "indexed": false,
          "name": "amount",
          "type": "uint256"
        }
      ],
      "name": "LogTransfer",
      "type": "event"
    },
    {
      "anonymous": false,
      "inputs": [
        {
          "indexed": false,
          "name": "sender",
          "type": "address"
        }
      ],
      "name": "LogFallback",
      "type": "event"
    },
    {
      "constant": false,
      "inputs": [],
      "name": "toggleContractActive",
      "outputs": [
        {
          "name": "success",
          "type": "bool"
        }
      ],
      "payable": false,
      "stateMutability": "nonpayable",
      "type": "function"
    },
    {
      "constant": true,
      "inputs": [],
      "name": "checkActive",
      "outputs": [
        {
          "name": "stoppedstatus",
          "type": "bool"
        }
      ],
      "payable": false,
      "stateMutability": "view",
      "type": "function"
    },
    {
      "constant": false,
      "inputs": [
        {
          "name": "_age",
          "type": "uint256"
        },
        {
          "name": "_fname",
          "type": "string"
        },
        {
          "name": "_lname",
          "type": "string"
        },
        {
          "name": "_email",
          "type": "string"
        }
      ],
      "name": "AddUser",
      "outputs": [
        {
          "name": "success",
          "type": "bool"
        }
      ],
      "payable": false,
      "stateMutability": "nonpayable",
      "type": "function"
    },
    {
      "constant": true,
      "inputs": [],
      "name": "getAllUser",
      "outputs": [
        {
          "name": "",
          "type": "address[]"
        }
      ],
      "payable": false,
      "stateMutability": "view",
      "type": "function"
    },
    {
      "constant": true,
      "inputs": [
        {
          "name": "accountAddress",
          "type": "address"
        }
      ],
      "name": "getUserData",
      "outputs": [
        {
          "name": "",
          "type": "uint256"
        },
        {
          "name": "",
          "type": "string"
        },
        {
          "name": "",
          "type": "string"
        },
        {
          "name": "",
          "type": "string"
        }
      ],
      "payable": false,
      "stateMutability": "view",
      "type": "function"
    },
    {
      "constant": true,
      "inputs": [],
      "name": "getMyAddress",
      "outputs": [
        {
          "name": "",
          "type": "address"
        }
      ],
      "payable": false,
      "stateMutability": "view",
      "type": "function"
    },
    {
      "constant": false,
      "inputs": [
        {
          "name": "job_title",
          "type": "string"
        },
        {
          "name": "job_description",
          "type": "string"
        }
      ],
      "name": "AddJob",
      "outputs": [
        {
          "name": "success",
          "type": "bool"
        }
      ],
      "payable": true,
      "stateMutability": "payable",
      "type": "function"
    },
    {
      "constant": true,
      "inputs": [],
      "name": "JobsCount",
      "outputs": [
        {
          "name": "count",
          "type": "uint256"
        }
      ],
      "payable": false,
      "stateMutability": "view",
      "type": "function"
    },
    {
      "constant": true,
      "inputs": [],
      "name": "ShowJobList",
      "outputs": [
        {
          "name": "",
          "type": "uint256[]"
        }
      ],
      "payable": false,
      "stateMutability": "view",
      "type": "function"
    },
    {
      "constant": true,
      "inputs": [
        {
          "name": "job_id",
          "type": "uint256"
        }
      ],
      "name": "ShowJobs",
      "outputs": [
        {
          "name": "",
          "type": "uint256"
        },
        {
          "name": "",
          "type": "string"
        },
        {
          "name": "",
          "type": "string"
        },
        {
          "name": "",
          "type": "uint256"
        },
        {
          "name": "",
          "type": "bool"
        }
      ],
      "payable": false,
      "stateMutability": "view",
      "type": "function"
    },
    {
      "constant": true,
      "inputs": [],
      "name": "MyAcceptedJobsID",
      "outputs": [
        {
          "name": "job_ids",
          "type": "uint256[]"
        }
      ],
      "payable": false,
      "stateMutability": "view",
      "type": "function"
    },
    {
      "constant": true,
      "inputs": [
        {
          "name": "job_id",
          "type": "uint256"
        }
      ],
      "name": "ShowMyAcceptedJobs",
      "outputs": [
        {
          "name": "",
          "type": "uint256"
        },
        {
          "name": "",
          "type": "string"
        },
        {
          "name": "",
          "type": "string"
        },
        {
          "name": "",
          "type": "uint256"
        },
        {
          "name": "",
          "type": "bool"
        }
      ],
      "payable": false,
      "stateMutability": "view",
      "type": "function"
    },
    {
      "constant": false,
      "inputs": [
        {
          "name": "job_id",
          "type": "uint256"
        }
      ],
      "name": "AcceptJob",
      "outputs": [
        {
          "name": "success",
          "type": "bool"
        }
      ],
      "payable": false,
      "stateMutability": "nonpayable",
      "type": "function"
    },
    {
      "constant": false,
      "inputs": [
        {
          "name": "job_id",
          "type": "uint256"
        }
      ],
      "name": "CompleteJob",
      "outputs": [
        {
          "name": "",
          "type": "bool"
        }
      ],
      "payable": false,
      "stateMutability": "nonpayable",
      "type": "function"
    },
    {
      "constant": false,
      "inputs": [],
      "name": "Withdraw",
      "outputs": [],
      "payable": false,
      "stateMutability": "nonpayable",
      "type": "function"
    },
    {
      "constant": true,
      "inputs": [],
      "name": "GetMyPromisedAmount",
      "outputs": [
        {
          "name": "",
          "type": "uint256"
        }
      ],
      "payable": false,
      "stateMutability": "view",
      "type": "function"
    },
    {
      "constant": true,
      "inputs": [],
      "name": "GetMyBalance",
      "outputs": [
        {
          "name": "",
          "type": "uint256"
        }
      ],
      "payable": false,
      "stateMutability": "view",
      "type": "function"
    }
  ],
  "bytecode": "0x60806040526000600760006101000a81548160ff02191690831515021790555033600760016101000a81548173ffffffffffffffffffffffffffffffffffffffff021916908373ffffffffffffffffffffffffffffffffffffffff16021790555034801561006c57600080fd5b5061203f8061007c6000396000f300608060405260043610610112576000357c0100000000000000000000000000000000000000000000000000000000900463ffffffff168063022b973514610184578063098689a2146101af5780630c33c522146102c65780631385d24c1461030757806327e235e314610336578063396e5fee1461038d5780633fccf1a4146103bc57806347531df81461047657806357ea89b6146104e2578063616d5058146104f95780636e3e11671461056657806370016275146105ab5780638b03da38146105d65780638e4ca94d146106425780639a16629914610687578063aa8c58cb146106de578063b1ad600a14610809578063bef201c114610834578063d59a30b61461095f578063ffc9896b146109cb575b34801561011e57600080fd5b507fb69fd6ce1172b9b256d41565f7bc27f5c13f2fe9d1b78f45c807dd66d97ea6e933604051808273ffffffffffffffffffffffffffffffffffffffff1673ffffffffffffffffffffffffffffffffffffffff16815260200191505060405180910390a1005b34801561019057600080fd5b50610199610b66565b6040518082815260200191505060405180910390f35b3480156101bb57600080fd5b506102ac60048036038101908080359060200190929190803590602001908201803590602001908080601f0160208091040260200160405190810160405280939291908181526020018383808284378201915050505050509192919290803590602001908201803590602001908080601f0160208091040260200160405190810160405280939291908181526020018383808284378201915050505050509192919290803590602001908201803590602001908080601f0160208091040260200160405190810160405280939291908181526020018383808284378201915050505050509192919290505050610bad565b604051808215151515815260200191505060405180910390f35b3480156102d257600080fd5b506102f160048036038101908080359060200190929190505050610e74565b6040518082815260200191505060405180910390f35b34801561031357600080fd5b5061031c610e97565b604051808215151515815260200191505060405180910390f35b34801561034257600080fd5b50610377600480360381019080803573ffffffffffffffffffffffffffffffffffffffff169060200190929190505050610f26565b6040518082815260200191505060405180910390f35b34801561039957600080fd5b506103a2610f3e565b604051808215151515815260200191505060405180910390f35b61045c600480360381019080803590602001908201803590602001908080601f0160208091040260200160405190810160405280939291908181526020018383808284378201915050505050509192919290803590602001908201803590602001908080601f0160208091040260200160405190810160405280939291908181526020018383808284378201915050505050509192919290505050610f55565b604051808215151515815260200191505060405180910390f35b34801561048257600080fd5b5061048b611171565b6040518080602001828103825283818151815260200191508051906020019060200280838360005b838110156104ce5780820151818401526020810190506104b3565b505050509050019250505060405180910390f35b3480156104ee57600080fd5b506104f76111ff565b005b34801561050557600080fd5b5061052460048036038101908080359060200190929190505050611435565b604051808273ffffffffffffffffffffffffffffffffffffffff1673ffffffffffffffffffffffffffffffffffffffff16815260200191505060405180910390f35b34801561057257600080fd5b5061059160048036038101908080359060200190929190505050611473565b604051808215151515815260200191505060405180910390f35b3480156105b757600080fd5b506105c0611676565b6040518082815260200191505060405180910390f35b3480156105e257600080fd5b506105eb6116bd565b6040518080602001828103825283818151815260200191508051906020019060200280838360005b8381101561062e578082015181840152602081019050610613565b505050509050019250505060405180910390f35b34801561064e57600080fd5b5061066d60048036038101908080359060200190929190505050611752565b604051808215151515815260200191505060405180910390f35b34801561069357600080fd5b5061069c61189c565b604051808273ffffffffffffffffffffffffffffffffffffffff1673ffffffffffffffffffffffffffffffffffffffff16815260200191505060405180910390f35b3480156106ea57600080fd5b50610709600480360381019080803590602001909291905050506118a4565b60405180868152602001806020018060200185815260200184151515158152602001838103835287818151815260200191508051906020019080838360005b83811015610763578082015181840152602081019050610748565b50505050905090810190601f1680156107905780820380516001836020036101000a031916815260200191505b50838103825286818151815260200191508051906020019080838360005b838110156107c95780820151818401526020810190506107ae565b50505050905090810190601f1680156107f65780820380516001836020036101000a031916815260200191505b5097505050505050505060405180910390f35b34801561081557600080fd5b5061081e611a5f565b6040518082815260200191505060405180910390f35b34801561084057600080fd5b5061085f60048036038101908080359060200190929190505050611a6c565b60405180868152602001806020018060200185815260200184151515158152602001838103835287818151815260200191508051906020019080838360005b838110156108b957808201518184015260208101905061089e565b50505050905090810190601f1680156108e65780820380516001836020036101000a031916815260200191505b50838103825286818151815260200191508051906020019080838360005b8381101561091f578082015181840152602081019050610904565b50505050905090810190601f16801561094c5780820380516001836020036101000a031916815260200191505b5097505050505050505060405180910390f35b34801561096b57600080fd5b50610974611c27565b6040518080602001828103825283818151815260200191508051906020019060200280838360005b838110156109b757808201518184015260208101905061099c565b505050509050019250505060405180910390f35b3480156109d757600080fd5b50610a0c600480360381019080803573ffffffffffffffffffffffffffffffffffffffff169060200190929190505050611c7f565b60405180858152602001806020018060200180602001848103845287818151815260200191508051906020019080838360005b83811015610a5a578082015181840152602081019050610a3f565b50505050905090810190601f168015610a875780820380516001836020036101000a031916815260200191505b50848103835286818151815260200191508051906020019080838360005b83811015610ac0578082015181840152602081019050610aa5565b50505050905090810190601f168015610aed5780820380516001836020036101000a031916815260200191505b50848103825285818151815260200191508051906020019080838360005b83811015610b26578082015181840152602081019050610b0b565b50505050905090810190601f168015610b535780820380516001836020036101000a031916815260200191505b5097505050505050505060405180910390f35b6000600660003373ffffffffffffffffffffffffffffffffffffffff1673ffffffffffffffffffffffffffffffffffffffff16815260200190815260200160002054905090565b600080600760009054906101000a900460ff16151515610bcc57600080fd5b6000803373ffffffffffffffffffffffffffffffffffffffff1673ffffffffffffffffffffffffffffffffffffffff168152602001908152602001600020905060008060003373ffffffffffffffffffffffffffffffffffffffff1673ffffffffffffffffffffffffffffffffffffffff1681526020019081526020016000206001018054600181600116156101000203166002900490501415610d6f57600160023390806001815401808255809150509060018203906000526020600020016000909192909190916101000a81548173ffffffffffffffffffffffffffffffffffffffff021916908373ffffffffffffffffffffffffffffffffffffffff160217905550505084816001019080519060200190610ceb929190611f6e565b5083816002019080519060200190610d04929190611f6e565b5082816003019080519060200190610d1d929190611f6e565b50858160000181905550338160040160006101000a81548173ffffffffffffffffffffffffffffffffffffffff021916908373ffffffffffffffffffffffffffffffffffffffff160217905550610e67565b60008060003373ffffffffffffffffffffffffffffffffffffffff1673ffffffffffffffffffffffffffffffffffffffff168152602001908152602001600020600101805460018160011615610100020316600290049050141515610e665784816001019080519060200190610de6929190611f6e565b5083816002019080519060200190610dff929190611f6e565b5082816003019080519060200190610e18929190611f6e565b50858160000181905550338160040160006101000a81548173ffffffffffffffffffffffffffffffffffffffff021916908373ffffffffffffffffffffffffffffffffffffffff1602179055505b5b6001915050949350505050565b600381815481101515610e8357fe5b906000526020600020016000915090505481565b6000600760019054906101000a900473ffffffffffffffffffffffffffffffffffffffff1673ffffffffffffffffffffffffffffffffffffffff163373ffffffffffffffffffffffffffffffffffffffff16141515610ef557600080fd5b600760009054906101000a900460ff1615600760006101000a81548160ff0219169083151502179055506001905090565b60066020528060005260406000206000915090505481565b6000600760009054906101000a900460ff16905090565b6000806000600760009054906101000a900460ff16151515610f7657600080fd5b600660003373ffffffffffffffffffffffffffffffffffffffff1673ffffffffffffffffffffffffffffffffffffffff1681526020019081526020016000205434600660003373ffffffffffffffffffffffffffffffffffffffff1673ffffffffffffffffffffffffffffffffffffffff168152602001908152602001600020540111151561100457600080fd5b6003805490509150600160008381526020019081526020016000209050338160000160006101000a81548173ffffffffffffffffffffffffffffffffffffffff021916908373ffffffffffffffffffffffffffffffffffffffff1602179055508481600201908051906020019061107c929190611f6e565b5083816003019080519060200190611095929190611f6e565b50348160040181905550600382908060018154018082558091505090600182039060005260206000200160009091929091909150555034600660003373ffffffffffffffffffffffffffffffffffffffff1673ffffffffffffffffffffffffffffffffffffffff1681526020019081526020016000206000828254019250508190555034600560003373ffffffffffffffffffffffffffffffffffffffff1673ffffffffffffffffffffffffffffffffffffffff1681526020019081526020016000206000828254019250508190555060019250505092915050565b606060028054806020026020016040519081016040528092919081815260200182805480156111f557602002820191906000526020600020905b8160009054906101000a900473ffffffffffffffffffffffffffffffffffffffff1673ffffffffffffffffffffffffffffffffffffffff16815260200190600101908083116111ab575b5050505050905090565b6000600560003373ffffffffffffffffffffffffffffffffffffffff1673ffffffffffffffffffffffffffffffffffffffff16815260200190815260200160002054600660003373ffffffffffffffffffffffffffffffffffffffff1673ffffffffffffffffffffffffffffffffffffffff16815260200190815260200160002054039050600660003373ffffffffffffffffffffffffffffffffffffffff1673ffffffffffffffffffffffffffffffffffffffff1681526020019081526020016000205481600660003373ffffffffffffffffffffffffffffffffffffffff1673ffffffffffffffffffffffffffffffffffffffff168152602001908152602001600020540310151561131257600080fd5b600560003373ffffffffffffffffffffffffffffffffffffffff1673ffffffffffffffffffffffffffffffffffffffff16815260200190815260200160002054600660003373ffffffffffffffffffffffffffffffffffffffff1673ffffffffffffffffffffffffffffffffffffffff1681526020019081526020016000205411151561139e57600080fd5b80600660003373ffffffffffffffffffffffffffffffffffffffff1673ffffffffffffffffffffffffffffffffffffffff168152602001908152602001600020600082825403925050819055503373ffffffffffffffffffffffffffffffffffffffff166108fc829081150290604051600060405180830381858888f19350505050158015611431573d6000803e3d6000fd5b5050565b60028181548110151561144457fe5b906000526020600020016000915054906101000a900473ffffffffffffffffffffffffffffffffffffffff1681565b6000806000600760009054906101000a900460ff1615151561149457600080fd5b6001600085815260200190815260200160002060050160019054906101000a900473ffffffffffffffffffffffffffffffffffffffff1673ffffffffffffffffffffffffffffffffffffffff163373ffffffffffffffffffffffffffffffffffffffff1614151561150457600080fd5b600160008581526020019081526020016000206004015491506001600085815260200190815260200160002060000160009054906101000a900473ffffffffffffffffffffffffffffffffffffffff169050600180600086815260200190815260200160002060050160156101000a81548160ff02191690831515021790555081600660008373ffffffffffffffffffffffffffffffffffffffff1673ffffffffffffffffffffffffffffffffffffffff1681526020019081526020016000206000828254039250508190555081600560008373ffffffffffffffffffffffffffffffffffffffff1673ffffffffffffffffffffffffffffffffffffffff1681526020019081526020016000206000828254039250508190555081600660003373ffffffffffffffffffffffffffffffffffffffff1673ffffffffffffffffffffffffffffffffffffffff16815260200190815260200160002060008282540192505081905550600192505050919050565b6000600560003373ffffffffffffffffffffffffffffffffffffffff1673ffffffffffffffffffffffffffffffffffffffff16815260200190815260200160002054905090565b6060600460003373ffffffffffffffffffffffffffffffffffffffff1673ffffffffffffffffffffffffffffffffffffffff16815260200190815260200160002080548060200260200160405190810160405280929190818152602001828054801561174857602002820191906000526020600020905b815481526020019060010190808311611734575b5050505050905090565b6000600760009054906101000a900460ff1615151561177057600080fd5b600115156001600084815260200190815260200160002060050160009054906101000a900460ff161515141515156117a757600080fd5b600460003373ffffffffffffffffffffffffffffffffffffffff1673ffffffffffffffffffffffffffffffffffffffff168152602001908152602001600020829080600181540180825580915050906001820390600052602060002001600090919290919091505550600180600084815260200190815260200160002060050160006101000a81548160ff021916908315150217905550336001600084815260200190815260200160002060050160016101000a81548173ffffffffffffffffffffffffffffffffffffffff021916908373ffffffffffffffffffffffffffffffffffffffff16021790555060019050919050565b600033905090565b6000606080600080856001600088815260200190815260200160002060020160016000898152602001908152602001600020600301600160008a815260200190815260200160002060040154600160008b815260200190815260200160002060050160159054906101000a900460ff16838054600181600116156101000203166002900480601f0160208091040260200160405190810160405280929190818152602001828054600181600116156101000203166002900480156119a95780601f1061197e576101008083540402835291602001916119a9565b820191906000526020600020905b81548152906001019060200180831161198c57829003601f168201915b50505050509350828054600181600116156101000203166002900480601f016020809104026020016040519081016040528092919081815260200182805460018160011615610100020316600290048015611a455780601f10611a1a57610100808354040283529160200191611a45565b820191906000526020600020905b815481529060010190602001808311611a2857829003601f168201915b505050505092509450945094509450945091939590929450565b6000600380549050905090565b6000606080600080856001600088815260200190815260200160002060020160016000898152602001908152602001600020600301600160008a815260200190815260200160002060040154600160008b815260200190815260200160002060050160009054906101000a900460ff16838054600181600116156101000203166002900480601f016020809104026020016040519081016040528092919081815260200182805460018160011615610100020316600290048015611b715780601f10611b4657610100808354040283529160200191611b71565b820191906000526020600020905b815481529060010190602001808311611b5457829003601f168201915b50505050509350828054600181600116156101000203166002900480601f016020809104026020016040519081016040528092919081815260200182805460018160011615610100020316600290048015611c0d5780601f10611be257610100808354040283529160200191611c0d565b820191906000526020600020905b815481529060010190602001808311611bf057829003601f168201915b505050505092509450945094509450945091939590929450565b60606003805480602002602001604051908101604052809291908181526020018280548015611c7557602002820191906000526020600020905b815481526020019060010190808311611c61575b5050505050905090565b600060608060606000808673ffffffffffffffffffffffffffffffffffffffff1673ffffffffffffffffffffffffffffffffffffffff168152602001908152602001600020600001546000808773ffffffffffffffffffffffffffffffffffffffff1673ffffffffffffffffffffffffffffffffffffffff1681526020019081526020016000206001016000808873ffffffffffffffffffffffffffffffffffffffff1673ffffffffffffffffffffffffffffffffffffffff1681526020019081526020016000206002016000808973ffffffffffffffffffffffffffffffffffffffff1673ffffffffffffffffffffffffffffffffffffffff168152602001908152602001600020600301828054600181600116156101000203166002900480601f016020809104026020016040519081016040528092919081815260200182805460018160011615610100020316600290048015611e205780601f10611df557610100808354040283529160200191611e20565b820191906000526020600020905b815481529060010190602001808311611e0357829003601f168201915b50505050509250818054600181600116156101000203166002900480601f016020809104026020016040519081016040528092919081815260200182805460018160011615610100020316600290048015611ebc5780601f10611e9157610100808354040283529160200191611ebc565b820191906000526020600020905b815481529060010190602001808311611e9f57829003601f168201915b50505050509150808054600181600116156101000203166002900480601f016020809104026020016040519081016040528092919081815260200182805460018160011615610100020316600290048015611f585780601f10611f2d57610100808354040283529160200191611f58565b820191906000526020600020905b815481529060010190602001808311611f3b57829003601f168201915b5050505050905093509350935093509193509193565b828054600181600116156101000203166002900490600052602060002090601f016020900481019282601f10611faf57805160ff1916838001178555611fdd565b82800160010185558215611fdd579182015b82811115611fdc578251825591602001919060010190611fc1565b5b509050611fea9190611fee565b5090565b61201091905b8082111561200c576000816000905550600101611ff4565b5090565b905600a165627a7a723058205eaed2f2317ab96a75f9adec54804534fb4980556a84c8d7f2b9deef4510c9d30029",
  "source": "pragma solidity 0.4.24;\n\n//////////// NOTES //////////////\n/*\nFuture Versions should:\nadd time limit between accepting and completing job.\n\nProtections in place:\nSolidity Pragma locked\nRentrancy protection\nOverflow protection\nUnderflow protection\nCircuit Breaker - Emergency stop by Contract Creator\n\nThings to add for Real dApp:\nSpeed Bumps\n\n*/\n\n// lock pragma\n\ncontract Bounty{\n\tstruct User{\n\t\tuint age;\n\t\tstring fname;\n\t\tstring lname;\n\t\tstring email;\n\t\taddress useraddress;\n\t}\n\tstruct Job{\n\t\taddress useraddress;//posted by\n\t\tuint job_id;\n\t\tstring job_title;\n\t\tstring job_description;\n\t\tuint job_price;\n\t\tbool accepted;\n\t\taddress accepted_by;\n\t\tbool completed;\n\t\tbool paid;\n\t}\n\t// users variable with User struct as datastructure\n\tmapping (address => User) users;\n\tmapping (uint => Job) jobs;\n\n\t// array to save user accounts\n\taddress[] public userAccounts;\n\tuint[] public jobList;\n\t//uint[] public acceptedjoblist;\n\tmapping (address => uint[]) myacceptedjoblist;\n\t// my promised amount locks the amount that is promised to workers\n\t// is only reduced when job is completed\n\tmapping (address => uint) mypromisedamount;\n\t// ETH transfers\n\t// balances stores ETH in the contract\n    mapping (address => uint256) public balances;\n\n\n\n\t// Circuit Breaker\n\tbool private stopped = false;\n\t// msg.sender is the one creating the contract here outside of the functions\n\taddress private owner = msg.sender;\n\n\tmodifier isAdmin() {\n\t    require(msg.sender == owner);\n\t    _;\n\t}\n\n\tfunction toggleContractActive()\n\tisAdmin \n\tpublic\n\treturns(bool success){\n\t    // You can add an additional modifier that restricts stopping a contract to be based on another action, such as a vote of users\n\t    stopped = !stopped;\n\t    return true;\n\t}\n\n\tmodifier stopInEmergency { require(!stopped); _; }\n\t// normal operation and emergency can withdraw\n\tmodifier onlyInEmergency { if (stopped) _; }\n\tevent logAddUser(address accountAddress,uint _age, string _fname, string _lname, string _email);\n\tevent logAddJob(string job_title, string job_description, uint job_price);\n\tevent logJobsCount();\n\tfunction checkActive() public view returns(bool stoppedstatus){\n\t\treturn stopped;\n\t}\n\tfunction AddUser(uint _age, string _fname, string _lname, string _email) \n\t  public\n\t  stopInEmergency\n\t  returns(bool success)\n\t\t{\n\t\tUser storage user =  users[msg.sender];\n\t\t// if new user\n\t\tif(bytes(users[msg.sender].fname).length == 0){\n\t\t\tuserAccounts.push(msg.sender) - 1;\n\t\t\tuser.fname = _fname;\n\t\t\tuser.lname = _lname;\n\t\t\tuser.email = _email;\n\t\t\tuser.age = _age;\n\t\t\tuser.useraddress = msg.sender;\n\t\t}else if(bytes(users[msg.sender].fname).length != 0){\n\t\t\t// if existing user, edit profile\n\t\t\tuser.fname = _fname;\n\t\t\tuser.lname = _lname;\n\t\t\tuser.email = _email;\n\t\t\tuser.age = _age;\n\t\t\tuser.useraddress = msg.sender;\n\t\t}\n\t\t\n\t\t\n\t\treturn (true);\n\n\t}\n\tfunction getAllUser() view public returns(address[]){\n\t\treturn userAccounts;\n\t}\n\tfunction getUserData(address accountAddress) view public returns(uint, string, string,string){\n\t\treturn (users[accountAddress].age,users[accountAddress].fname,users[accountAddress].lname,users[accountAddress].email);\n\t}\n\tfunction getMyAddress() view public returns(address){\n\t\treturn msg.sender;\n\t}\n\tfunction AddJob(string job_title, string job_description) \n\t\tstopInEmergency\n\t\tpayable \n\t\tpublic \n\t\treturns(bool success)\n\t{\n\t\t// overflow protection\n    \trequire(balances[msg.sender] + msg.value > balances[msg.sender]);\n\t\t// the number will be used as job id\n\t\tuint job_id = jobList.length;\n\t\tJob storage job = jobs[job_id];\n\t\tjob.useraddress = msg.sender;\n\t\tjob.job_title = job_title;\n\t\tjob.job_description = job_description;\n\t\tjob.job_price = msg.value;\n\t\tjobList.push(job_id);\n\t\tbalances[msg.sender] += msg.value;\n\t\tmypromisedamount[msg.sender] += msg.value;\n\t\treturn true;\n\t}\n\tfunction JobsCount() view public returns(uint count){\n\t\treturn uint(jobList.length);\n\t}\n\tfunction ShowJobList() view public returns(uint[]){\n\t\treturn jobList;\n\t}\n\tfunction ShowJobs(uint job_id) view public returns(uint,string,string,uint,bool){\n\t\treturn (job_id,jobs[job_id].job_title,jobs[job_id].job_description,jobs[job_id].job_price,jobs[job_id].accepted);\n\t}\n\tfunction MyAcceptedJobsID() view public returns(uint[] job_ids){\n\t\treturn myacceptedjoblist[msg.sender];\n\t}\n\tfunction ShowMyAcceptedJobs(uint job_id) view public returns(uint,string,string,uint,bool){\n\t\treturn (job_id,jobs[job_id].job_title,jobs[job_id].job_description,jobs[job_id].job_price,jobs[job_id].completed);\n\t}\n\tfunction AcceptJob(uint job_id) \n\tpublic \n\tstopInEmergency\n\treturns(bool success){\n\t\trequire(jobs[job_id].accepted != true);\n\t\tmyacceptedjoblist[msg.sender].push(job_id);\n\t\tjobs[job_id].accepted = true;\n\t\tjobs[job_id].accepted_by = msg.sender;\n\t\treturn true;\n\t}\n\tfunction CompleteJob(uint job_id)\n\tstopInEmergency\n\tpublic\n\treturns(bool){\n\t\t// only the person who accepted can complete it\n\t\trequire(msg.sender == jobs[job_id].accepted_by);\n\t\t// Check if the sender has enough\n\t\tuint amount = jobs[job_id].job_price;\n\t\taddress job_poster = jobs[job_id].useraddress;\n    \t//uint balance = balances[job_poster];\n    \t//require(balance >= amount); // will cause error\n\t\tjobs[job_id].completed = true;\n\t\tbalances[job_poster] -= amount;\n\t\tmypromisedamount[job_poster] -= amount;\n\t\tbalances[msg.sender] += amount;\n\t\treturn true;\n\t}\n\n    event LogDeposit(address sender, uint amount);\n    event LogWithdrawal(address receiver, uint amount);\n    event LogTransfer(address sender, address to, uint amount);\n\n    function Deposit() stopInEmergency internal returns(bool) {\n    \t\n        balances[msg.sender] += msg.value;\n        emit LogDeposit(msg.sender, msg.value);\n        return true;\n    }\n\n    function Withdraw() external{\n    \tuint withdraw_amount = balances[msg.sender] - mypromisedamount[msg.sender];\n    \t// underflow protection\n    \trequire(balances[msg.sender] - withdraw_amount < balances[msg.sender]);\n    \trequire(balances[msg.sender] > mypromisedamount[msg.sender]);\n        balances[msg.sender] -= withdraw_amount;\n        msg.sender.transfer(withdraw_amount);\n        \n    }\n    function GetMyPromisedAmount() public view returns(uint){\n    \treturn mypromisedamount[msg.sender];\n    }\n\n    function GetMyBalance() public view returns(uint){\n    \treturn balances[msg.sender];\n    }\n\n    event LogFallback(address sender);\n    function () public{\n    \temit LogFallback(msg.sender);\n    }\n\n    // fallback function\n\n    \n}",
  "sourcePath": "/home/dj/Desktop/projects/bounty-app/contracts/Bounty.sol",
  "compiler": {
    "name": "solc",
    "version": "0.4.24+commit.e67f0147.Emscripten.clang"
  },
  "schemaVersion": "2.0.1",
  "updatedAt": "2018-08-25T15:44:21.897Z"
}